01370357PEREA               ADRIANA             19810101B1700000000000000000000                     
01406147ROTEDA              AGUSTIN             19820204K1700000000000000000000                     
01411937MICHELIZ            ALICIA              19830307H1700000000000000000000                     
01658737SOSA                ANAHI               19840410U9700000000000000000000                     
01705537BENITEZ             ANALIA              19850513X2700000000000000000000                     
01712337GONZALEZ            ANDREA              19860616W2700000000000000000000                     
02687647LOPEZ               ANDRES              19870719E2700000000000000000000                     
02785178SUAREZ              ANIBAL              19880822P2700000000000000000000                     
02794931RAMIRES             CARLOS              19890925Y2700000000000000000000                     
02930722ACHAVAL             CELIA               19901028L3700000000000000000000                     
03066512SOBRERO             CRISTINA            19911131F3700000000000000000000                     
03102302QUIMAL              DANIEL              19921201M3700000000000000000000                     
03108092SANCHEZ             DIEGO               19920102N3700000000000000000000                     
03354892CERDA               EDUARDO             19930205Q6700000000000000000000                     
03401692CONTRERAS           EMILIA              19940308R2700000000000000000000                     
03408492LUQUE               ENRIQUE             19950411A2700000000000000000000                     
04383802IBAÑEZ              FRANCISCO           19960514J2700000000000000000000                     
04481333DIAZ                GABRIELA            19970617D7700000000000000000000                     
04491086BAGLIETTO           GASTON              19980720Z7700000000000020150315                     
04626877ALVAREZ             GONZALO             19990823S3700000000000020150315                     
04762667VICENZO             GRACIELA            20000926G3700000000000020150315                     
04798457SOLERA              GUSTAVO             20011029V8700000000000020150315                     
04804247SOLIS               IGNACIO             19670101T8700000000000020150628                     
05051047BIGLIA              JEREMIAS            19680204B9700000000000020150628                     
05097847MORENO              JORGE               19690307K2700000000000020150628                     
05104647CACERES             JOSEFINA            19700410H2700000000000020150628                     
06079957PELAEZ              JUAN                19710513U2700000000000020150628                     
06177488BARONI              LISANDRO            19720616X6700000000000020150628                     
06187241BERMUDEZ            LUCIA               19730719W6700000000000020150315                     
06323032SALDES              LUCIANA             19740822E6700000000000020150315                     
06458822RENAN               MARCELO             19750925P6700000000000020150315                     
06494612RACEDO              MARIA               19761028Y9700000000000020150315                     
06500402ROLDAN              MARIELA             19771131L9700000000000020150628                     
06747202IRIARTE             MARINA              19770101F9700000000000020150628                     
06794002CUELLO              MARIO               19780204M2700000000000020150628                     
06800802MELIAN              MARISA              19790307N7700000000000020150628                     
07776112PALERMO             MARTHA              19800410Q7700000000000020150628                     
07873643VAUDAGNA            MARTIN              19810513R7700000000000020150628                     
07883396MONTENEGRO          MARTINA             19820616A7700000000000020150315                     
08019187SALERNO             MATIAS              19830719J7700000000000020150315                     
08154977FRANCO              MATILDE             19840822D7700000000000020150315                     
08190767ARCE                MERCEDES            19850925Z7700000000000020150315                     
08196557PARRILLI            MICAELA             19861028S7700000000000020150628                     
08443357MENDEZ              MIGUEL              19871131G8700000000000020150628                     
08490157MAIQUEZ             NADIR               19881201V2700000000000020150628                     
08496957ROVERI              NAHUEL              19890102T2700000000000020150628                     
09472267ALFARO              OMAR                19900205B2700000000000020150628                     
09569798LAVERNI             OTTO                19910308K2700000000000020150628                     
09579551LIGORRIA            PABLO               19920411H2700000000000020150628                     
09715342LIFCHITZ            PAOLA               19930514U2700000000000020150628                     
09851132LOZANO              PAULA               19840514X2700000000000020150628                     
09886922PARENTE             PAULA               19870714W2700000000000020150628                     
09892712PARODI              PEDRO               19880918E2700000000000020150628                     
10139512FILIPA              RAMIRO              19891007P2700000000000020150628                     
10186312MORELLI             RAUL                19870214Y2700000000000020150628                     
10193112FERNANDEZ           RICARDO             19840419L2700000000000020150628                     
11168422FASIELLA            ROBERTO             19820621F2700000000000020150628                     
11265953SOLORZANO           RUBEN               19800927M2700000000000020150628                     
11275706PAREDES             RUTH                19790714N2700000000000020150628                     
11411497FERRARIS            SABRINA             19770911Q2700000000000020150628                     
11547287TARQUINO            SERGIO              19760714B2700000000000020150628                     
11583077ABRATE              SOFIA               19750904K2700000000000020150628                     
11588867CRIVELLI            SOLEDAD             19741006H2700000000000020150628                     
11835667BINETTI             SUSANA              19731108U2700000000000020150628                     
11882467AZAR                TERESA              19721210X2700000000000020150628                     
11889267BONELLI             WALTER              19710912L8700000000000020150628                     
12864577APARICIO            FACUNDO             19700817F8700000000000020150628                     
12962108LANATA              ANTONIO             19690719V8700000000000020150628                     
12971861QUIROGA             EZEQUIEL            19680623T8700000000000020150628                     
13107652ATREIDES            FEDERICO            19670528E8700000000000020150628                     
13243442PEREA               ADRIANA             19810101B1700000000000000000000                     
13279232ROTEDA              AGUSTIN             19820204K1700000000000000000000                     
13285022MICHELIZ            ALICIA              19830307H1700000000000000000000                     
13531822SOSA                ANAHI               19840410U9700000000000000000000                     
13578622BENITEZ             ANALIA              19850513X2700000000000000000000                     
13585422GONZALEZ            ANDREA              19860616W2700000000000000000000                     
14560732LOPEZ               ANDRES              19870719E2700000000000000000000                     
14658263SUAREZ              ANIBAL              19880822P2700000000000000000000                     
14668016RAMIRES             CARLOS              19890925Y2700000000000000000000                     
14803807ACHAVAL             CELIA               19901028L3700000000000000000000                     
14939597SOBRERO             CRISTINA            19911131F3700000000000000000000                     
14975387QUIMAL              DANIEL              19921201M3700000000000000000000                     
14981177SANCHEZ             DIEGO               19920102N3700000000000000000000                     
15227977CERDA               EDUARDO             19930205Q6700000000000000000000                     
15274777CONTRERAS           EMILIA              19940308R2700000000000000000000                     
15281577LUQUE               ENRIQUE             19950411A2700000000000000000000                     
16256887IBAÑEZ              FRANCISCO           19960514J2700000000000000000000                     
16354418DIAZ                GABRIELA            19970617D7700000000000000000000                     
16364171BAGLIETTO           GASTON              19980720Z7700000000000020150315                     
16499962ALVAREZ             GONZALO             19990823S3700000000000020150315                     
16635752VICENZO             GRACIELA            20000926G3700000000000020150315                     
16671542SOLERA              GUSTAVO             20011029V8700000000000020150315                     
16677332SOLIS               IGNACIO             19670101T8700000000000020150628                     
16924132BIGLIA              JEREMIAS            19680204B9700000000000020150628                     
16970932MORENO              JORGE               19690307K2700000000000020150628                     
16977732CACERES             JOSEFINA            19700410H2700000000000020150628                     
17953042PELAEZ              JUAN                19710513U2700000000000020150628                     
18050573BARONI              LISANDRO            19720616X6700000000000020150628                     
18060326BERMUDEZ            LUCIA               19730719W6700000000000020150315                     
18196117SALDES              LUCIANA             19740822E6700000000000020150315                     
18331907RENAN               MARCELO             19750925P6700000000000020150315                     
18367697RACEDO              MARIA               19761028Y9700000000000020150315                     
18373487ROLDAN              MARIELA             19771131L9700000000000020150628                     
18620287IRIARTE             MARINA              19770101F9700000000000020150628                     
18667087CUELLO              MARIO               19780204M2700000000000020150628                     
18673887MELIAN              MARISA              19790307N7700000000000020150628                     
19649197PALERMO             MARTHA              19800410Q7700000000000020150628                     
19746728VAUDAGNA            MARTIN              19810513R7700000000000020150628                     
19756481MONTENEGRO          MARTINA             19820616A7700000000000020150315                     
19892272SALERNO             MATIAS              19830719J7700000000000020150315                     
20028062FRANCO              MATILDE             19840822D7700000000000020150315                     
20063852ARCE                MERCEDES            19850925Z7700000000000020150315                     
20069642PARRILLI            MICAELA             19861028S7700000000000020150628                     
20316442MENDEZ              MIGUEL              19871131G8700000000000020150628                     
20363242MAIQUEZ             NADIR               19881201V2700000000000020150628                     
20370042ROVERI              NAHUEL              19890102T2700000000000020150628                     
21345352ALFARO              OMAR                19900205B2700000000000020150628                     
21442883LAVERNI             OTTO                19910308K2700000000000020150628                     
21452636LIGORRIA            PABLO               19920411H2700000000000020150628                     
21588427LIFCHITZ            PAOLA               19930514U2700000000000020150628                     
21724217LOZANO              PAULA               19840514X2700000000000020150628                     
21760007PARENTE             PAULA               19870714W2700000000000020150628                     
21765797PARODI              PEDRO               19880918E2700000000000020150628                     
22012597FILIPA              RAMIRO              19891007P2700000000000020150628                     
22059397MORELLI             RAUL                19870214Y2700000000000020150628                     
22066197FERNANDEZ           RICARDO             19840419L2700000000000020150628                     
23041507FASIELLA            ROBERTO             19820621F2700000000000020150628                     
23139038SOLORZANO           RUBEN               19800927M2700000000000020150628                     
23148791PAREDES             RUTH                19790714N2700000000000020150628                     
23284582FERRARIS            SABRINA             19770911Q2700000000000020150628                     
23420372TARQUINO            SERGIO              19760714B2700000000000020150628                     
23456162ABRATE              SOFIA               19750904K2700000000000020150628                     
23461952CRIVELLI            SOLEDAD             19741006H2700000000000020150628                     
23708752BINETTI             SUSANA              19731108U2700000000000020150628                     
23755552AZAR                TERESA              19721210X2700000000000020150628                     
23762352BONELLI             WALTER              19710912L8700000000000020150628                     
24737662APARICIO            FACUNDO             19700817F8700000000000020150628                     
24835193LANATA              ANTONIO             19690719V8700000000000020150628                     
24844946QUIROGA             EZEQUIEL            19680623T8700000000000020150628                     
24980737ATREIDES            FEDERICO            19670528E8700000000000020150628                     
25116527PEREA               ADRIANA             19810101B1700000000000000000000                     
25152317ROTEDA              AGUSTIN             19820204K1700000000000000000000                     
25158107MICHELIZ            ALICIA              19830307H1700000000000000000000                     
25404907SOSA                ANAHI               19840410U9700000000000000000000                     
25451707BENITEZ             ANALIA              19850513X2700000000000000000000                     
25458507GONZALEZ            ANDREA              19860616W2700000000000000000000                     
26433817LOPEZ               ANDRES              19870719E2700000000000000000000                     
26531348SUAREZ              ANIBAL              19880822P2700000000000000000000                     
26541101RAMIRES             CARLOS              19890925Y2700000000000000000000                     
26676892ACHAVAL             CELIA               19901028L3700000000000000000000                     
26812682SOBRERO             CRISTINA            19911131F3700000000000000000000                     
26848472QUIMAL              DANIEL              19921201M3700000000000000000000                     
26854262SANCHEZ             DIEGO               19920102N3700000000000000000000                     
27101062CERDA               EDUARDO             19930205Q6700000000000000000000                     
27147862CONTRERAS           EMILIA              19940308R2700000000000000000000                     
27154662LUQUE               ENRIQUE             19950411A2700000000000000000000                     
28129972IBAÑEZ              FRANCISCO           19960514J2700000000000000000000                     
28227503DIAZ                GABRIELA            19970617D7700000000000000000000                     
28237256BAGLIETTO           GASTON              19980720Z7700000000000020150315                     
28373047ALVAREZ             GONZALO             19990823S3700000000000020150315                     
28508837VICENZO             GRACIELA            20000926G3700000000000020150315                     
28544627SOLERA              GUSTAVO             20011029V8700000000000020150315                     
28550417SOLIS               IGNACIO             19670101T8700000000000020150628                     
28797217BIGLIA              JEREMIAS            19680204B9700000000000020150628                     
28844017MORENO              JORGE               19690307K2700000000000020150628                     
28850817CACERES             JOSEFINA            19700410H2700000000000020150628                     
29826127PELAEZ              JUAN                19710513U2700000000000020150628                     
29923658BARONI              LISANDRO            19720616X6700000000000020150628                     
29933411BERMUDEZ            LUCIA               19730719W6700000000000020150315                     
30069202SALDES              LUCIANA             19740822E6700000000000020150315                     
30204992RENAN               MARCELO             19750925P6700000000000020150315                     
30240782RACEDO              MARIA               19761028Y9700000000000020150315                     
30246572ROLDAN              MARIELA             19771131L9700000000000020150628                     
30493372IRIARTE             MARINA              19770101F9700000000000020150628                     
30540172CUELLO              MARIO               19780204M2700000000000020150628                     
30546972MELIAN              MARISA              19790307N7700000000000020150628                     
31522282PALERMO             MARTHA              19800410Q7700000000000020150628                     
31619813VAUDAGNA            MARTIN              19810513R7700000000000020150628                     
31629566MONTENEGRO          MARTINA             19820616A7700000000000020150315                     
31765357SALERNO             MATIAS              19830719J7700000000000020150315                     
31901147FRANCO              MATILDE             19840822D7700000000000020150315                     
31936937ARCE                MERCEDES            19850925Z7700000000000020150315                     
31942727PARRILLI            MICAELA             19861028S7700000000000020150628                     
32189527MENDEZ              MIGUEL              19871131G8700000000000020150628                     
32236327MAIQUEZ             NADIR               19881201V2700000000000020150628                     
32243127ROVERI              NAHUEL              19890102T2700000000000020150628                     
33218437ALFARO              OMAR                19900205B2700000000000020150628                     
33315968LAVERNI             OTTO                19910308K2700000000000020150628                     
33325721LIGORRIA            PABLO               19920411H2700000000000020150628                     
33461512LIFCHITZ            PAOLA               19930514U2700000000000020150628                     
33597302LOZANO              PAULA               19840514X2700000000000020150628                     
33633092PARENTE             PAULA               19870714W2700000000000020150628                     
33638882PARODI              PEDRO               19880918E2700000000000020150628                     
33885682FILIPA              RAMIRO              19891007P2700000000000020150628                     
33932482MORELLI             RAUL                19870214Y2700000000000020150628                     
33939282FERNANDEZ           RICARDO             19840419L2700000000000020150628                     
34914592FASIELLA            ROBERTO             19820621F2700000000000020150628                     
35012123SOLORZANO           RUBEN               19800927M2700000000000020150628                     
35021876PAREDES             RUTH                19790714N2700000000000020150628                     
35157667FERRARIS            SABRINA             19770911Q2700000000000020150628                     
35293457TARQUINO            SERGIO              19760714B2700000000000020150628                     
35329247ABRATE              SOFIA               19750904K2700000000000020150628                     
35335037CRIVELLI            SOLEDAD             19741006H2700000000000020150628                     
35581837BINETTI             SUSANA              19731108U2700000000000020150628                     
35628637AZAR                TERESA              19721210X2700000000000020150628                     
35635437BONELLI             WALTER              19710912L8700000000000020150628                     
36610747APARICIO            FACUNDO             19700817F8700000000000020150628                     
36708278LANATA              ANTONIO             19690719V8700000000000020150628                     
36718031QUIROGA             EZEQUIEL            19680623T8700000000000020150628                     
36853822ATREIDES            FEDERICO            19670528E8700000000000020150628                     
36989612PEREA               ADRIANA             19810101B1700000000000000000000                     
37025402ROTEDA              AGUSTIN             19820204K1700000000000000000000                     
37031192MICHELIZ            ALICIA              19830307H1700000000000000000000                     
37277992SOSA                ANAHI               19840410U9700000000000000000000                     
37324792BENITEZ             ANALIA              19850513X2700000000000000000000                     
37331592GONZALEZ            ANDREA              19860616W2700000000000000000000                     
38306902LOPEZ               ANDRES              19870719E2700000000000000000000                     
38404433SUAREZ              ANIBAL              19880822P2700000000000000000000                     
38414186RAMIRES             CARLOS              19890925Y2700000000000000000000                     
38549977ACHAVAL             CELIA               19901028L3700000000000000000000                     
38685767SOBRERO             CRISTINA            19911131F3700000000000000000000                     
38721557QUIMAL              DANIEL              19921201M3700000000000000000000                     
38727347SANCHEZ             DIEGO               19920102N3700000000000000000000                     
38974147CERDA               EDUARDO             19930205Q6700000000000000000000                     
39020947CONTRERAS           EMILIA              19940308R2700000000000000000000                     
39027747LUQUE               ENRIQUE             19950411A2700000000000000000000                     
40003057IBAÑEZ              FRANCISCO           19960514J2700000000000000000000                     
40100588DIAZ                GABRIELA            19970617D7700000000000000000000                     
40110341BAGLIETTO           GASTON              19980720Z7700000000000020150315                     
40246132ALVAREZ             GONZALO             19990823S3700000000000020150315                     
40381922VICENZO             GRACIELA            20000926G3700000000000020150315                     
40417712SOLERA              GUSTAVO             20011029V8700000000000020150315                     
40423502SOLIS               IGNACIO             19670101T8700000000000020150628                     
40670302BIGLIA              JEREMIAS            19680204B9700000000000020150628                     
40717102MORENO              JORGE               19690307K2700000000000020150628                     
40723902CACERES             JOSEFINA            19700410H2700000000000020150628                     
41699212PELAEZ              JUAN                19710513U2700000000000020150628                     
41796743BARONI              LISANDRO            19720616X6700000000000020150628                     
41806496BERMUDEZ            LUCIA               19730719W6700000000000020150315                     
41942287SALDES              LUCIANA             19740822E6700000000000020150315                     
42078077RENAN               MARCELO             19750925P6700000000000020150315                     
42113867RACEDO              MARIA               19761028Y9700000000000020150315                     
42119657ROLDAN              MARIELA             19771131L9700000000000020150628                     
42366457IRIARTE             MARINA              19770101F9700000000000020150628                     
42413257CUELLO              MARIO               19780204M2700000000000020150628                     
42420057MELIAN              MARISA              19790307N7700000000000020150628                     
43395367PALERMO             MARTHA              19800410Q7700000000000020150628                     
43492898VAUDAGNA            MARTIN              19810513R7700000000000020150628                     
43502651MONTENEGRO          MARTINA             19820616A7700000000000020150315                     
43638442SALERNO             MATIAS              19830719J7700000000000020150315                     
43774232FRANCO              MATILDE             19840822D7700000000000020150315                     
43810022ARCE                MERCEDES            19850925Z7700000000000020150315                     
43815812PARRILLI            MICAELA             19861028S7700000000000020150628                     
44062612MENDEZ              MIGUEL              19871131G8700000000000020150628                     
44109412MAIQUEZ             NADIR               19881201V2700000000000020150628                     
44116212ROVERI              NAHUEL              19890102T2700000000000020150628                     
45091522ALFARO              OMAR                19900205B2700000000000020150628                     
45189053LAVERNI             OTTO                19910308K2700000000000020150628                     
45198806LIGORRIA            PABLO               19920411H2700000000000020150628                     
45334597LIFCHITZ            PAOLA               19930514U2700000000000020150628                     
45470387LOZANO              PAULA               19840514X2700000000000020150628                     
45506177PARENTE             PAULA               19870714W2700000000000020150628                     
45511967PARODI              PEDRO               19880918E2700000000000020150628                     
45758767FILIPA              RAMIRO              19891007P2700000000000020150628                     
45805567MORELLI             RAUL                19870214Y2700000000000020150628                     
45812367FERNANDEZ           RICARDO             19840419L2700000000000020150628                     
46787677FASIELLA            ROBERTO             19820621F2700000000000020150628                     
46885208SOLORZANO           RUBEN               19800927M2700000000000020150628                     
46894961PAREDES             RUTH                19790714N2700000000000020150628                     
47030752FERRARIS            SABRINA             19770911Q2700000000000020150628                     
47166542TARQUINO            SERGIO              19760714B2700000000000020150628                     
47202332ABRATE              SOFIA               19750904K2700000000000020150628                     
47208122CRIVELLI            SOLEDAD             19741006H2700000000000020150628                     
47454922BINETTI             SUSANA              19731108U2700000000000020150628                     
47501722AZAR                TERESA              19721210X2700000000000020150628                     
47508522BONELLI             WALTER              19710912L8700000000000020150628                     
48483832APARICIO            FACUNDO             19700817F8700000000000020150628                     
48581363LANATA              ANTONIO             19690719V8700000000000020150628                     
48591116QUIROGA             EZEQUIEL            19680623T8700000000000020150628                     
48726907ATREIDES            FEDERICO            19670528E8700000000000020150628                     
48862697PEREA               ADRIANA             19810101B1700000000000000000000                     
48898487ROTEDA              AGUSTIN             19820204K1700000000000000000000                     
48904277MICHELIZ            ALICIA              19830307H1700000000000000000000                     
49151077SOSA                ANAHI               19840410U9700000000000000000000                     
49197877BENITEZ             ANALIA              19850513X2700000000000000000000                     
49204677GONZALEZ            ANDREA              19860616W2700000000000000000000                     
50179987LOPEZ               ANDRES              19870719E2700000000000000000000                     
50277518SUAREZ              ANIBAL              19880822P2700000000000000000000                     
50287271RAMIRES             CARLOS              19890925Y2700000000000000000000                     
50423062ACHAVAL             CELIA               19901028L3700000000000000000000                     
50558852SOBRERO             CRISTINA            19911131F3700000000000000000000                     
50594642QUIMAL              DANIEL              19921201M3700000000000000000000                     
50600432SANCHEZ             DIEGO               19920102N3700000000000000000000                     
50847232CERDA               EDUARDO             19930205Q6700000000000000000000                     
50894032CONTRERAS           EMILIA              19940308R2700000000000000000000                     
50900832LUQUE               ENRIQUE             19950411A2700000000000000000000                     
51876142IBAÑEZ              FRANCISCO           19960514J2700000000000000000000                     
51973673DIAZ                GABRIELA            19970617D7700000000000000000000                     
51983426BAGLIETTO           GASTON              19980720Z7700000000000020150315                     
52119217ALVAREZ             GONZALO             19990823S3700000000000020150315                     
52255007VICENZO             GRACIELA            20000926G3700000000000020150315                     
52290797SOLERA              GUSTAVO             20011029V8700000000000020150315                     
52296587SOLIS               IGNACIO             19670101T8700000000000020150628                     
52543387BIGLIA              JEREMIAS            19680204B9700000000000020150628                     
52590187MORENO              JORGE               19690307K2700000000000020150628                     
52596987CACERES             JOSEFINA            19700410H2700000000000020150628                     
53572297PELAEZ              JUAN                19710513U2700000000000020150628                     
53669828BARONI              LISANDRO            19720616X6700000000000020150628                     
53679581BERMUDEZ            LUCIA               19730719W6700000000000020150315                     
53815372SALDES              LUCIANA             19740822E6700000000000020150315                     
53951162RENAN               MARCELO             19750925P6700000000000020150315                     
53986952RACEDO              MARIA               19761028Y9700000000000020150315                     
53992742ROLDAN              MARIELA             19771131L9700000000000020150628                     
54239542IRIARTE             MARINA              19770101F9700000000000020150628                     
54286342CUELLO              MARIO               19780204M2700000000000020150628                     
54293142MELIAN              MARISA              19790307N7700000000000020150628                     
55268452PALERMO             MARTHA              19800410Q7700000000000020150628                     
55365983VAUDAGNA            MARTIN              19810513R7700000000000020150628                     
55375736MONTENEGRO          MARTINA             19820616A7700000000000020150315                     
55511527SALERNO             MATIAS              19830719J7700000000000020150315                     
55647317FRANCO              MATILDE             19840822D7700000000000020150315                     
55683107ARCE                MERCEDES            19850925Z7700000000000020150315                     
55688897PARRILLI            MICAELA             19861028S7700000000000020150628                     
55935697MENDEZ              MIGUEL              19871131G8700000000000020150628                     
55982497MAIQUEZ             NADIR               19881201V2700000000000020150628                     
55989297ROVERI              NAHUEL              19890102T2700000000000020150628                     
56964607ALFARO              OMAR                19900205B2700000000000020150628                     
57062138LAVERNI             OTTO                19910308K2700000000000020150628                     
57071891LIGORRIA            PABLO               19920411H2700000000000020150628                     
57207682LIFCHITZ            PAOLA               19930514U2700000000000020150628                     
57343472LOZANO              PAULA               19840514X2700000000000020150628                     
57379262PARENTE             PAULA               19870714W2700000000000020150628                     
57385052PARODI              PEDRO               19880918E2700000000000020150628                     
57631852FILIPA              RAMIRO              19891007P2700000000000020150628                     
57678652MORELLI             RAUL                19870214Y2700000000000020150628                     
57685452FERNANDEZ           RICARDO             19840419L2700000000000020150628                     
58660762FASIELLA            ROBERTO             19820621F2700000000000020150628                     
58758293SOLORZANO           RUBEN               19800927M2700000000000020150628                     
58768046PAREDES             RUTH                19790714N2700000000000020150628                     
58903837FERRARIS            SABRINA             19770911Q2700000000000020150628                     
59039627TARQUINO            SERGIO              19760714B2700000000000020150628                     
59075417ABRATE              SOFIA               19750904K2700000000000020150628                     
59081207CRIVELLI            SOLEDAD             19741006H2700000000000020150628                     
59328007BINETTI             SUSANA              19731108U2700000000000020150628                     
59374807AZAR                TERESA              19721210X2700000000000020150628                     
59381607BONELLI             WALTER              19710912L8700000000000020150628                     
60356917APARICIO            FACUNDO             19700817F8700000000000020150628                     
60454448LANATA              ANTONIO             19690719V8700000000000020150628                     
60464201QUIROGA             EZEQUIEL            19680623T8700000000000020150628                     
60599992ATREIDES            FEDERICO            19670528E8700000000000020150628                     
60735782PEREA               ADRIANA             19810101B1700000000000000000000                     
60771572ROTEDA              AGUSTIN             19820204K1700000000000000000000                     
60777362MICHELIZ            ALICIA              19830307H1700000000000000000000                     
61024162SOSA                ANAHI               19840410U9700000000000000000000                     
61070962BENITEZ             ANALIA              19850513X2700000000000000000000                     
61077762GONZALEZ            ANDREA              19860616W2700000000000000000000                     
62053072LOPEZ               ANDRES              19870719E2700000000000000000000                     
62150603SUAREZ              ANIBAL              19880822P2700000000000000000000                     
62160356RAMIRES             CARLOS              19890925Y2700000000000000000000                     
62296147ACHAVAL             CELIA               19901028L3700000000000000000000                     
62431937SOBRERO             CRISTINA            19911131F3700000000000000000000                     
62467727QUIMAL              DANIEL              19921201M3700000000000000000000                     
62473517SANCHEZ             DIEGO               19920102N3700000000000000000000                     
62720317CERDA               EDUARDO             19930205Q6700000000000000000000                     
62767117CONTRERAS           EMILIA              19940308R2700000000000000000000                     
62773917LUQUE               ENRIQUE             19950411A2700000000000000000000                     
63749227IBAÑEZ              FRANCISCO           19960514J2700000000000000000000                     
63846758DIAZ                GABRIELA            19970617D7700000000000000000000                     
63856511BAGLIETTO           GASTON              19980720Z7700000000000020150315                     
63992302ALVAREZ             GONZALO             19990823S3700000000000020150315                     
64128092VICENZO             GRACIELA            20000926G3700000000000020150315                     
64163882SOLERA              GUSTAVO             20011029V8700000000000020150315                     
64169672SOLIS               IGNACIO             19670101T8700000000000020150628                     
64416472BIGLIA              JEREMIAS            19680204B9700000000000020150628                     
64463272MORENO              JORGE               19690307K2700000000000020150628                     
64470072CACERES             JOSEFINA            19700410H2700000000000020150628                     
65445382PELAEZ              JUAN                19710513U2700000000000020150628                     
65542913BARONI              LISANDRO            19720616X6700000000000020150628                     
65552666BERMUDEZ            LUCIA               19730719W6700000000000020150315                     
65688457SALDES              LUCIANA             19740822E6700000000000020150315                     
65824247RENAN               MARCELO             19750925P6700000000000020150315                     
65860037RACEDO              MARIA               19761028Y9700000000000020150315                     
65865827ROLDAN              MARIELA             19771131L9700000000000020150628                     
66112627IRIARTE             MARINA              19770101F9700000000000020150628                     
66159427CUELLO              MARIO               19780204M2700000000000020150628                     
66166227MELIAN              MARISA              19790307N7700000000000020150628                     
67141537PALERMO             MARTHA              19800410Q7700000000000020150628                     
67239068VAUDAGNA            MARTIN              19810513R7700000000000020150628                     
67248821MONTENEGRO          MARTINA             19820616A7700000000000020150315                     
67384612SALERNO             MATIAS              19830719J7700000000000020150315                     
67520402FRANCO              MATILDE             19840822D7700000000000020150315                     
67556192ARCE                MERCEDES            19850925Z7700000000000020150315                     
67561982PARRILLI            MICAELA             19861028S7700000000000020150628                     
67808782MENDEZ              MIGUEL              19871131G8700000000000020150628                     
67855582MAIQUEZ             NADIR               19881201V2700000000000020150628                     
67862382ROVERI              NAHUEL              19890102T2700000000000020150628                     
68837692ALFARO              OMAR                19900205B2700000000000020150628                     
68935223LAVERNI             OTTO                19910308K2700000000000020150628                     
68944976LIGORRIA            PABLO               19920411H2700000000000020150628                     
69080767LIFCHITZ            PAOLA               19930514U2700000000000020150628                     
69216557LOZANO              PAULA               19840514X2700000000000020150628                     
69252347PARENTE             PAULA               19870714W2700000000000020150628                     
69258137PARODI              PEDRO               19880918E2700000000000020150628                     
69504937FILIPA              RAMIRO              19891007P2700000000000020150628                     
69551737MORELLI             RAUL                19870214Y2700000000000020150628                     
69558537FERNANDEZ           RICARDO             19840419L2700000000000020150628                     
70533847FASIELLA            ROBERTO             19820621F2700000000000020150628                     
70631378SOLORZANO           RUBEN               19800927M2700000000000020150628                     
70641131PAREDES             RUTH                19790714N2700000000000020150628                     
70776922FERRARIS            SABRINA             19770911Q2700000000000020150628                     
70912712TARQUINO            SERGIO              19760714B2700000000000020150628                     
70948502ABRATE              SOFIA               19750904K2700000000000020150628                     
70954292CRIVELLI            SOLEDAD             19741006H2700000000000020150628                     
71201092BINETTI             SUSANA              19731108U2700000000000020150628                     
71247892AZAR                TERESA              19721210X2700000000000020150628                     
71254692BONELLI             WALTER              19710912L8700000000000020150628                     
72230002APARICIO            FACUNDO             19700817F8700000000000020150628                     
72327533LANATA              ANTONIO             19690719V8700000000000020150628                     
72337286QUIROGA             EZEQUIEL            19680623T8700000000000020150628                     
72473077ATREIDES            FEDERICO            19670528E8700000000000020150628                     
72608867PEREA               ADRIANA             19810101B1700000000000000000000                     
72644657ROTEDA              AGUSTIN             19820204K1700000000000000000000                     
72650447MICHELIZ            ALICIA              19830307H1700000000000000000000                     
72897247SOSA                ANAHI               19840410U9700000000000000000000                     
72944047BENITEZ             ANALIA              19850513X2700000000000000000000                     
72950847GONZALEZ            ANDREA              19860616W2700000000000000000000                     
73926157LOPEZ               ANDRES              19870719E2700000000000000000000                     
74023688SUAREZ              ANIBAL              19880822P2700000000000000000000                     
74033441RAMIRES             CARLOS              19890925Y2700000000000000000000                     
74169232ACHAVAL             CELIA               19901028L3700000000000000000000                     
74305022SOBRERO             CRISTINA            19911131F3700000000000000000000                     
74340812QUIMAL              DANIEL              19921201M3700000000000000000000                     
74346602SANCHEZ             DIEGO               19920102N3700000000000000000000                     
74593402CERDA               EDUARDO             19930205Q6700000000000000000000                     
74640202CONTRERAS           EMILIA              19940308R2700000000000000000000                     
74647002LUQUE               ENRIQUE             19950411A2700000000000000000000                     
75622312IBAÑEZ              FRANCISCO           19960514J2700000000000000000000                     
75719843DIAZ                GABRIELA            19970617D7700000000000000000000                     
75729596BAGLIETTO           GASTON              19980720Z7700000000000020150315                     
75865387ALVAREZ             GONZALO             19990823S3700000000000020150315                     
76001177VICENZO             GRACIELA            20000926G3700000000000020150315                     
76036967SOLERA              GUSTAVO             20011029V8700000000000020150315                     
76042757SOLIS               IGNACIO             19670101T8700000000000020150628                     
76289557BIGLIA              JEREMIAS            19680204B9700000000000020150628                     
76336357MORENO              JORGE               19690307K2700000000000020150628                     
76343157CACERES             JOSEFINA            19700410H2700000000000020150628                     
77318467PELAEZ              JUAN                19710513U2700000000000020150628                     
77415998BARONI              LISANDRO            19720616X6700000000000020150628                     
77425751BERMUDEZ            LUCIA               19730719W6700000000000020150315                     
77561542SALDES              LUCIANA             19740822E6700000000000020150315                     
77697332RENAN               MARCELO             19750925P6700000000000020150315                     
77733122RACEDO              MARIA               19761028Y9700000000000020150315                     
77738912ROLDAN              MARIELA             19771131L9700000000000020150628                     
77985712IRIARTE             MARINA              19770101F9700000000000020150628                     
78032512CUELLO              MARIO               19780204M2700000000000020150628                     
78039312MELIAN              MARISA              19790307N7700000000000020150628                     
79014622PALERMO             MARTHA              19800410Q7700000000000020150628                     
79112153VAUDAGNA            MARTIN              19810513R7700000000000020150628                     
79121906MONTENEGRO          MARTINA             19820616A7700000000000020150315                     
79257697SALERNO             MATIAS              19830719J7700000000000020150315                     
79393487FRANCO              MATILDE             19840822D7700000000000020150315                     
79429277ARCE                MERCEDES            19850925Z7700000000000020150315                     
79435067PARRILLI            MICAELA             19861028S7700000000000020150628                     
79681867MENDEZ              MIGUEL              19871131G8700000000000020150628                     
79728667MAIQUEZ             NADIR               19881201V2700000000000020150628                     
79735467ROVERI              NAHUEL              19890102T2700000000000020150628                     
80710777ALFARO              OMAR                19900205B2700000000000020150628                     
80808308LAVERNI             OTTO                19910308K2700000000000020150628                     
80818061LIGORRIA            PABLO               19920411H2700000000000020150628                     
80953852LIFCHITZ            PAOLA               19930514U2700000000000020150628                     
81089642LOZANO              PAULA               19840514X2700000000000020150628                     
81125432PARENTE             PAULA               19870714W2700000000000020150628                     
81131222PARODI              PEDRO               19880918E2700000000000020150628                     
81378022FILIPA              RAMIRO              19891007P2700000000000020150628                     
81424822MORELLI             RAUL                19870214Y2700000000000020150628                     
81431622FERNANDEZ           RICARDO             19840419L2700000000000020150628                     
82406932FASIELLA            ROBERTO             19820621F2700000000000020150628                     
82504463SOLORZANO           RUBEN               19800927M2700000000000020150628                     
82514216PAREDES             RUTH                19790714N2700000000000020150628                     
82650007FERRARIS            SABRINA             19770911Q2700000000000020150628                     
82785797TARQUINO            SERGIO              19760714B2700000000000020150628                     
82821587ABRATE              SOFIA               19750904K2700000000000020150628                     
82827377CRIVELLI            SOLEDAD             19741006H2700000000000020150628                     
83074177BINETTI             SUSANA              19731108U2700000000000020150628                     
83120977AZAR                TERESA              19721210X2700000000000020150628                     
83127777BONELLI             WALTER              19710912L8700000000000020150628                     
84103087APARICIO            FACUNDO             19700817F8700000000000020150628                     
84200618LANATA              ANTONIO             19690719V8700000000000020150628                     
84210371QUIROGA             EZEQUIEL            19680623T8700000000000020150628                     
84346162ATREIDES            FEDERICO            19670528E8700000000000020150628                     
84481952PEREA               ADRIANA             19810101B1700000000000000000000                     
84517742ROTEDA              AGUSTIN             19820204K1700000000000000000000                     
84523532MICHELIZ            ALICIA              19830307H1700000000000000000000                     
84770332SOSA                ANAHI               19840410U9700000000000000000000                     
84817132BENITEZ             ANALIA              19850513X2700000000000000000000                     
84823932GONZALEZ            ANDREA              19860616W2700000000000000000000                     
85799242LOPEZ               ANDRES              19870719E2700000000000000000000                     
85896773SUAREZ              ANIBAL              19880822P2700000000000000000000                     
85906526RAMIRES             CARLOS              19890925Y2700000000000000000000                     
86042317ACHAVAL             CELIA               19901028L3700000000000000000000                     
86178107SOBRERO             CRISTINA            19911131F3700000000000000000000                     
86213897QUIMAL              DANIEL              19921201M3700000000000000000000                     
86219687SANCHEZ             DIEGO               19920102N3700000000000000000000                     
86466487CERDA               EDUARDO             19930205Q6700000000000000000000                     
86513287CONTRERAS           EMILIA              19940308R2700000000000000000000                     
86520087LUQUE               ENRIQUE             19950411A2700000000000000000000                     
87495397IBAÑEZ              FRANCISCO           19960514J2700000000000000000000                     
87592928DIAZ                GABRIELA            19970617D7700000000000000000000                     
87602681BAGLIETTO           GASTON              19980720Z7700000000000020150315                     
87738472ALVAREZ             GONZALO             19990823S3700000000000020150315                     
87874262VICENZO             GRACIELA            20000926G3700000000000020150315                     
87910052SOLERA              GUSTAVO             20011029V8700000000000020150315                     
87915842SOLIS               IGNACIO             19670101T8700000000000020150628                     
88162642BIGLIA              JEREMIAS            19680204B9700000000000020150628                     
88209442MORENO              JORGE               19690307K2700000000000020150628                     
88216242CACERES             JOSEFINA            19700410H2700000000000020150628                     
89191552PELAEZ              JUAN                19710513U2700000000000020150628                     
89289083BARONI              LISANDRO            19720616X6700000000000020150628                     
89298836BERMUDEZ            LUCIA               19730719W6700000000000020150315                     
89434627SALDES              LUCIANA             19740822E6700000000000020150315                     
89570417RENAN               MARCELO             19750925P6700000000000020150315                     
89606207RACEDO              MARIA               19761028Y9700000000000020150315                     
89611997ROLDAN              MARIELA             19771131L9700000000000020150628                     
89858797IRIARTE             MARINA              19770101F9700000000000020150628                     
89905597CUELLO              MARIO               19780204M2700000000000020150628                     
89912397MELIAN              MARISA              19790307N7700000000000020150628                     
90887707PALERMO             MARTHA              19800410Q7700000000000020150628                     
90985238VAUDAGNA            MARTIN              19810513R7700000000000020150628                     
90994991MONTENEGRO          MARTINA             19820616A7700000000000020150315                     
91130782SALERNO             MATIAS              19830719J7700000000000020150315                     
91266572FRANCO              MATILDE             19840822D7700000000000020150315                     
91302362ARCE                MERCEDES            19850925Z7700000000000020150315                     
91308152PARRILLI            MICAELA             19861028S7700000000000020150628                     
91554952MENDEZ              MIGUEL              19871131G8700000000000020150628                     
91601752MAIQUEZ             NADIR               19881201V2700000000000020150628                     
91608552ROVERI              NAHUEL              19890102T2700000000000020150628                     
92583862ALFARO              OMAR                19900205B2700000000000020150628                     
92681393LAVERNI             OTTO                19910308K2700000000000020150628                     
92691146LIGORRIA            PABLO               19920411H2700000000000020150628                     
92826937LIFCHITZ            PAOLA               19930514U2700000000000020150628                     
92962727LOZANO              PAULA               19840514X2700000000000020150628                     
92998517PARENTE             PAULA               19870714W2700000000000020150628                     
93004307PARODI              PEDRO               19880918E2700000000000020150628                     
93251107FILIPA              RAMIRO              19891007P2700000000000020150628                     
93297907MORELLI             RAUL                19870214Y2700000000000020150628                     
93304707FERNANDEZ           RICARDO             19840419L2700000000000020150628                     
94280017FASIELLA            ROBERTO             19820621F2700000000000020150628                     
94377548SOLORZANO           RUBEN               19800927M2700000000000020150628                     
94387301PAREDES             RUTH                19790714N2700000000000020150628                     
94523092FERRARIS            SABRINA             19770911Q2700000000000020150628                     
94658882TARQUINO            SERGIO              19760714B2700000000000020150628                     
94694672ABRATE              SOFIA               19750904K2700000000000020150628                     
94700462CRIVELLI            SOLEDAD             19741006H2700000000000020150628                     
94947262BINETTI             SUSANA              19731108U2700000000000020150628                     
94994062AZAR                TERESA              19721210X2700000000000020150628                     
95000862BONELLI             WALTER              19710912L8700000000000020150628                     
95976172APARICIO            FACUNDO             19700817F8700000000000020150628                     
96073703LANATA              ANTONIO             19690719V8700000000000020150628                     
96083456QUIROGA             EZEQUIEL            19680623T8700000000000020150628                     
96219247ATREIDES            FEDERICO            19670528E8700000000000020150628                     
96355037PEREA               ADRIANA             19810101B1700000000000000000000                     
96390827ROTEDA              AGUSTIN             19820204K1700000000000000000000                     
96396617MICHELIZ            ALICIA              19830307H1700000000000000000000                     
96643417SOSA                ANAHI               19840410U9700000000000000000000                     
96690217BENITEZ             ANALIA              19850513X2700000000000000000000                     
96697017GONZALEZ            ANDREA              19860616W2700000000000000000000                     
97672327LOPEZ               ANDRES              19870719E2700000000000000000000                     
97769858SUAREZ              ANIBAL              19880822P2700000000000000000000                     
97779611RAMIRES             CARLOS              19890925Y2700000000000000000000                     
97915402ACHAVAL             CELIA               19901028L3700000000000000000000                     
98051192SOBRERO             CRISTINA            19911131F3700000000000000000000                     
98086982QUIMAL              DANIEL              19921201M3700000000000000000000                     
98092772SANCHEZ             DIEGO               19920102N3700000000000000000000                     
98339572CERDA               EDUARDO             19930205Q6700000000000000000000                     
98386372CONTRERAS           EMILIA              19940308R2700000000000000000000                     
98393172LUQUE               ENRIQUE             19950411A2700000000000000000000                     
99368482IBAÑEZ              FRANCISCO           19960514J2700000000000000000000                     
99466013DIAZ                GABRIELA            19970617D7700000000000000000000                     
99475766BAGLIETTO           GASTON              19980720Z7700000000000020150315                     
99611557ALVAREZ             GONZALO             19990823S3700000000000020150315                     
99747347VICENZO             GRACIELA            20000926G3700000000000020150315                     
99783137SOLERA              GUSTAVO             20011029V8700000000000020150315                     
99788927SOLIS               IGNACIO             19670101T8700000000000020150628                     
00035727BIGLIA              JEREMIAS            19680204B9700000000000020150628                     
00082527MORENO              JORGE               19690307K2700000000000020150628                     
00089327CACERES             JOSEFINA            19700410H2700000000000020150628                     
01064637PELAEZ              JUAN                19710513U2700000000000020150628                     
01162168BARONI              LISANDRO            19720616X6700000000000020150628                     
01171921BERMUDEZ            LUCIA               19730719W6700000000000020150315                     
01307712SALDES              LUCIANA             19740822E6700000000000020150315                     
01443502RENAN               MARCELO             19750925P6700000000000020150315                     
01479292RACEDO              MARIA               19761028Y9700000000000020150315                     
01485082ROLDAN              MARIELA             19771131L9700000000000020150628                     
01731882IRIARTE             MARINA              19770101F9700000000000020150628                     
01778682CUELLO              MARIO               19780204M2700000000000020150628                     
01785482MELIAN              MARISA              19790307N7700000000000020150628                     
02760792PALERMO             MARTHA              19800410Q7700000000000020150628                     
02858323VAUDAGNA            MARTIN              19810513R7700000000000020150628                     
02868076MONTENEGRO          MARTINA             19820616A7700000000000020150315                     
03003867SALERNO             MATIAS              19830719J7700000000000020150315                     
03139657FRANCO              MATILDE             19840822D7700000000000020150315                     
03175447ARCE                MERCEDES            19850925Z7700000000000020150315                     
03181237PARRILLI            MICAELA             19861028S7700000000000020150628                     
03428037MENDEZ              MIGUEL              19871131G8700000000000020150628                     
03474837MAIQUEZ             NADIR               19881201V2700000000000020150628                     
03481637ROVERI              NAHUEL              19890102T2700000000000020150628                     
04456947ALFARO              OMAR                19900205B2700000000000020150628                     
04554478LAVERNI             OTTO                19910308K2700000000000020150628                     
04564231LIGORRIA            PABLO               19920411H2700000000000020150628                     
04700022LIFCHITZ            PAOLA               19930514U2700000000000020150628                     
04835812LOZANO              PAULA               19840514X2700000000000020150628                     
04871602PARENTE             PAULA               19870714W2700000000000020150628                     
04877392PARODI              PEDRO               19880918E2700000000000020150628                     
05124192FILIPA              RAMIRO              19891007P2700000000000020150628                     
05170992MORELLI             RAUL                19870214Y2700000000000020150628                     
05177792FERNANDEZ           RICARDO             19840419L2700000000000020150628                     
06153102FASIELLA            ROBERTO             19820621F2700000000000020150628                     
06250633SOLORZANO           RUBEN               19800927M2700000000000020150628                     
06260386PAREDES             RUTH                19790714N2700000000000020150628                     
06396177FERRARIS            SABRINA             19770911Q2700000000000020150628                     
06531967TARQUINO            SERGIO              19760714B2700000000000020150628                     
06567757ABRATE              SOFIA               19750904K2700000000000020150628                     
06573547CRIVELLI            SOLEDAD             19741006H2700000000000020150628                     
06820347BINETTI             SUSANA              19731108U2700000000000020150628                     
06867147AZAR                TERESA              19721210X2700000000000020150628                     
06873947BONELLI             WALTER              19710912L8700000000000020150628                     
07849257APARICIO            FACUNDO             19700817F8700000000000020150628                     
07946788LANATA              ANTONIO             19690719V8700000000000020150628                     
07956541QUIROGA             EZEQUIEL            19680623T8700000000000020150628                     
08092332ATREIDES            FEDERICO            19670528E8700000000000020150628                     
08228122PEREA               ADRIANA             19810101B1700000000000000000000                     
08263912ROTEDA              AGUSTIN             19820204K1700000000000000000000                     
08269702MICHELIZ            ALICIA              19830307H1700000000000000000000                     
08516502SOSA                ANAHI               19840410U9700000000000000000000                     
08563302BENITEZ             ANALIA              19850513X2700000000000000000000                     
08570102GONZALEZ            ANDREA              19860616W2700000000000000000000                     
09545412LOPEZ               ANDRES              19870719E2700000000000000000000                     
09642943SUAREZ              ANIBAL              19880822P2700000000000000000000                     
09652696RAMIRES             CARLOS              19890925Y2700000000000000000000                     
09788487ACHAVAL             CELIA               19901028L3700000000000000000000                     
09924277SOBRERO             CRISTINA            19911131F3700000000000000000000                     
09960067QUIMAL              DANIEL              19921201M3700000000000000000000                     
09965857SANCHEZ             DIEGO               19920102N3700000000000000000000                     
10212657CERDA               EDUARDO             19930205Q6700000000000000000000                     
10259457CONTRERAS           EMILIA              19940308R2700000000000000000000                     
10266257LUQUE               ENRIQUE             19950411A2700000000000000000000                     
11241567IBAÑEZ              FRANCISCO           19960514J2700000000000000000000                     
11339098DIAZ                GABRIELA            19970617D7700000000000000000000                     
11348851BAGLIETTO           GASTON              19980720Z7700000000000020150315                     
11484642ALVAREZ             GONZALO             19990823S3700000000000020150315                     
11620432VICENZO             GRACIELA            20000926G3700000000000020150315                     
11656222SOLERA              GUSTAVO             20011029V8700000000000020150315                     
11662012SOLIS               IGNACIO             19670101T8700000000000020150628                     
11908812BIGLIA              JEREMIAS            19680204B9700000000000020150628                     
11955612MORENO              JORGE               19690307K2700000000000020150628                     
11962412CACERES             JOSEFINA            19700410H2700000000000020150628                     
12937722PELAEZ              JUAN                19710513U2700000000000020150628                     
13035253BARONI              LISANDRO            19720616X6700000000000020150628                     
13045006BERMUDEZ            LUCIA               19730719W6700000000000020150315                     
13180797SALDES              LUCIANA             19740822E6700000000000020150315                     
13316587RENAN               MARCELO             19750925P6700000000000020150315                     
13352377RACEDO              MARIA               19761028Y9700000000000020150315                     
13358167ROLDAN              MARIELA             19771131L9700000000000020150628                     
13604967IRIARTE             MARINA              19770101F9700000000000020150628                     
13651767CUELLO              MARIO               19780204M2700000000000020150628                     
13658567MELIAN              MARISA              19790307N7700000000000020150628                     
14633877PALERMO             MARTHA              19800410Q7700000000000020150628                     
14731408VAUDAGNA            MARTIN              19810513R7700000000000020150628                     
14741161MONTENEGRO          MARTINA             19820616A7700000000000020150315                     
14876952SALERNO             MATIAS              19830719J7700000000000020150315                     
15012742FRANCO              MATILDE             19840822D7700000000000020150315                     
15048532ARCE                MERCEDES            19850925Z7700000000000020150315                     
15054322PARRILLI            MICAELA             19861028S7700000000000020150628                     
15301122MENDEZ              MIGUEL              19871131G8700000000000020150628                     
15347922MAIQUEZ             NADIR               19881201V2700000000000020150628                     
15354722ROVERI              NAHUEL              19890102T2700000000000020150628                     
16330032ALFARO              OMAR                19900205B2700000000000020150628                     
16427563LAVERNI             OTTO                19910308K2700000000000020150628                     
16437316LIGORRIA            PABLO               19920411H2700000000000020150628                     
16573107LIFCHITZ            PAOLA               19930514U2700000000000020150628                     
16708897LOZANO              PAULA               19840514X2700000000000020150628                     
16744687PARENTE             PAULA               19870714W2700000000000020150628                     
16750477PARODI              PEDRO               19880918E2700000000000020150628                     
16997277FILIPA              RAMIRO              19891007P2700000000000020150628                     
17044077MORELLI             RAUL                19870214Y2700000000000020150628                     
17050877FERNANDEZ           RICARDO             19840419L2700000000000020150628                     
18026187FASIELLA            ROBERTO             19820621F2700000000000020150628                     
18123718SOLORZANO           RUBEN               19800927M2700000000000020150628                     
18133471PAREDES             RUTH                19790714N2700000000000020150628                     
18269262FERRARIS            SABRINA             19770911Q2700000000000020150628                     
18405052TARQUINO            SERGIO              19760714B2700000000000020150628                     
18440842ABRATE              SOFIA               19750904K2700000000000020150628                     
18446632CRIVELLI            SOLEDAD             19741006H2700000000000020150628                     
18693432BINETTI             SUSANA              19731108U2700000000000020150628                     
18740232AZAR                TERESA              19721210X2700000000000020150628                     
18747032BONELLI             WALTER              19710912L8700000000000020150628                     
19722342APARICIO            FACUNDO             19700817F8700000000000020150628                     
19819873LANATA              ANTONIO             19690719V8700000000000020150628                     
19829626QUIROGA             EZEQUIEL            19680623T8700000000000020150628                     
19965417ATREIDES            FEDERICO            19670528E8700000000000020150628                     
20101207PEREA               ADRIANA             19810101B1700000000000000000000                     
20136997ROTEDA              AGUSTIN             19820204K1700000000000000000000                     
20142787MICHELIZ            ALICIA              19830307H1700000000000000000000                     
20389587SOSA                ANAHI               19840410U9700000000000000000000                     
20436387BENITEZ             ANALIA              19850513X2700000000000000000000                     
20443187GONZALEZ            ANDREA              19860616W2700000000000000000000                     
21418497LOPEZ               ANDRES              19870719E2700000000000000000000                     
21516028SUAREZ              ANIBAL              19880822P2700000000000000000000                     
21525781RAMIRES             CARLOS              19890925Y2700000000000000000000                     
21661572ACHAVAL             CELIA               19901028L3700000000000000000000                     
21797362SOBRERO             CRISTINA            19911131F3700000000000000000000                     
21833152QUIMAL              DANIEL              19921201M3700000000000000000000                     
21838942SANCHEZ             DIEGO               19920102N3700000000000000000000                     
22085742CERDA               EDUARDO             19930205Q6700000000000000000000                     
22132542CONTRERAS           EMILIA              19940308R2700000000000000000000                     
22139342LUQUE               ENRIQUE             19950411A2700000000000000000000                     
23114652IBAÑEZ              FRANCISCO           19960514J2700000000000000000000                     
23212183DIAZ                GABRIELA            19970617D7700000000000000000000                     
23221936BAGLIETTO           GASTON              19980720Z7700000000000020150315                     
23357727ALVAREZ             GONZALO             19990823S3700000000000020150315                     
23493517VICENZO             GRACIELA            20000926G3700000000000020150315                     
23529307SOLERA              GUSTAVO             20011029V8700000000000020150315                     
23535097SOLIS               IGNACIO             19670101T8700000000000020150628                     
23781897BIGLIA              JEREMIAS            19680204B9700000000000020150628                     
23828697MORENO              JORGE               19690307K2700000000000020150628                     
23835497CACERES             JOSEFINA            19700410H2700000000000020150628                     
24810807PELAEZ              JUAN                19710513U2700000000000020150628                     
24908338BARONI              LISANDRO            19720616X6700000000000020150628                     
24918091BERMUDEZ            LUCIA               19730719W6700000000000020150315                     
25053882SALDES              LUCIANA             19740822E6700000000000020150315                     
25189672RENAN               MARCELO             19750925P6700000000000020150315                     
25225462RACEDO              MARIA               19761028Y9700000000000020150315                     
25231252ROLDAN              MARIELA             19771131L9700000000000020150628                     
25478052IRIARTE             MARINA              19770101F9700000000000020150628                     
25524852CUELLO              MARIO               19780204M2700000000000020150628                     
25531652MELIAN              MARISA              19790307N7700000000000020150628                     
26506962PALERMO             MARTHA              19800410Q7700000000000020150628                     
26604493VAUDAGNA            MARTIN              19810513R7700000000000020150628                     
26614246MONTENEGRO          MARTINA             19820616A7700000000000020150315                     
26750037SALERNO             MATIAS              19830719J7700000000000020150315                     
26885827FRANCO              MATILDE             19840822D7700000000000020150315                     
26921617ARCE                MERCEDES            19850925Z7700000000000020150315                     
26927407PARRILLI            MICAELA             19861028S7700000000000020150628                     
27174207MENDEZ              MIGUEL              19871131G8700000000000020150628                     
27221007MAIQUEZ             NADIR               19881201V2700000000000020150628                     
27227807ROVERI              NAHUEL              19890102T2700000000000020150628                     
28203117ALFARO              OMAR                19900205B2700000000000020150628                     
28300648LAVERNI             OTTO                19910308K2700000000000020150628                     
28310401LIGORRIA            PABLO               19920411H2700000000000020150628                     
28446192LIFCHITZ            PAOLA               19930514U2700000000000020150628                     
28581982LOZANO              PAULA               19840514X2700000000000020150628                     
28617772PARENTE             PAULA               19870714W2700000000000020150628                     
28623562PARODI              PEDRO               19880918E2700000000000020150628                     
28870362FILIPA              RAMIRO              19891007P2700000000000020150628                     
28917162MORELLI             RAUL                19870214Y2700000000000020150628                     
28923962FERNANDEZ           RICARDO             19840419L2700000000000020150628                     
29899272FASIELLA            ROBERTO             19820621F2700000000000020150628                     
29996803SOLORZANO           RUBEN               19800927M2700000000000020150628                     
30006556PAREDES             RUTH                19790714N2700000000000020150628                     
30142347FERRARIS            SABRINA             19770911Q2700000000000020150628                     
30278137TARQUINO            SERGIO              19760714B2700000000000020150628                     
30313927ABRATE              SOFIA               19750904K2700000000000020150628                     
30319717CRIVELLI            SOLEDAD             19741006H2700000000000020150628                     
30566517BINETTI             SUSANA              19731108U2700000000000020150628                     
30613317AZAR                TERESA              19721210X2700000000000020150628                     
30620117BONELLI             WALTER              19710912L8700000000000020150628                     
31595427APARICIO            FACUNDO             19700817F8700000000000020150628                     
31692958LANATA              ANTONIO             19690719V8700000000000020150628                     
31702711QUIROGA             EZEQUIEL            19680623T8700000000000020150628                     
31838502ATREIDES            FEDERICO            19670528E8700000000000020150628                     
31974292PEREA               ADRIANA             19810101B1700000000000000000000                     
32010082ROTEDA              AGUSTIN             19820204K1700000000000000000000                     
32015872MICHELIZ            ALICIA              19830307H1700000000000000000000                     
32262672SOSA                ANAHI               19840410U9700000000000000000000                     
32309472BENITEZ             ANALIA              19850513X2700000000000000000000                     
32316272GONZALEZ            ANDREA              19860616W2700000000000000000000                     
33291582LOPEZ               ANDRES              19870719E2700000000000000000000                     
33389113SUAREZ              ANIBAL              19880822P2700000000000000000000                     
33398866RAMIRES             CARLOS              19890925Y2700000000000000000000                     
33534657ACHAVAL             CELIA               19901028L3700000000000000000000                     
33670447SOBRERO             CRISTINA            19911131F3700000000000000000000                     
33706237QUIMAL              DANIEL              19921201M3700000000000000000000                     
33712027SANCHEZ             DIEGO               19920102N3700000000000000000000                     
33958827CERDA               EDUARDO             19930205Q6700000000000000000000                     
34005627CONTRERAS           EMILIA              19940308R2700000000000000000000                     
34012427LUQUE               ENRIQUE             19950411A2700000000000000000000                     
34987737IBAÑEZ              FRANCISCO           19960514J2700000000000000000000                     
35085268DIAZ                GABRIELA            19970617D7700000000000000000000                     
35095021BAGLIETTO           GASTON              19980720Z7700000000000020150315                     
35230812ALVAREZ             GONZALO             19990823S3700000000000020150315                     
35366602VICENZO             GRACIELA            20000926G3700000000000020150315                     
35402392SOLERA              GUSTAVO             20011029V8700000000000020150315                     
35408182SOLIS               IGNACIO             19670101T8700000000000020150628                     
35654982BIGLIA              JEREMIAS            19680204B9700000000000020150628                     
35701782MORENO              JORGE               19690307K2700000000000020150628                     
35708582CACERES             JOSEFINA            19700410H2700000000000020150628                     
36683892PELAEZ              JUAN                19710513U2700000000000020150628                     
36781423BARONI              LISANDRO            19720616X6700000000000020150628                     
36791176BERMUDEZ            LUCIA               19730719W6700000000000020150315                     
36926967SALDES              LUCIANA             19740822E6700000000000020150315                     
37062757RENAN               MARCELO             19750925P6700000000000020150315                     
37098547RACEDO              MARIA               19761028Y9700000000000020150315                     
37104337ROLDAN              MARIELA             19771131L9700000000000020150628                     
37351137IRIARTE             MARINA              19770101F9700000000000020150628                     
37397937CUELLO              MARIO               19780204M2700000000000020150628                     
37404737MELIAN              MARISA              19790307N7700000000000020150628                     
38380047PALERMO             MARTHA              19800410Q7700000000000020150628                     
38477578VAUDAGNA            MARTIN              19810513R7700000000000020150628                     
38487331MONTENEGRO          MARTINA             19820616A7700000000000020150315                     
38623122SALERNO             MATIAS              19830719J7700000000000020150315                     
38758912FRANCO              MATILDE             19840822D7700000000000020150315                     
38794702ARCE                MERCEDES            19850925Z7700000000000020150315                     
38800492PARRILLI            MICAELA             19861028S7700000000000020150628                     
39047292MENDEZ              MIGUEL              19871131G8700000000000020150628                     
39094092MAIQUEZ             NADIR               19881201V2700000000000020150628                     
39100892ROVERI              NAHUEL              19890102T2700000000000020150628                     
40076202ALFARO              OMAR                19900205B2700000000000020150628                     
40173733LAVERNI             OTTO                19910308K2700000000000020150628                     
40183486LIGORRIA            PABLO               19920411H2700000000000020150628                     
40319277LIFCHITZ            PAOLA               19930514U2700000000000020150628                     
40455067LOZANO              PAULA               19840514X2700000000000020150628                     
40490857PARENTE             PAULA               19870714W2700000000000020150628                     
40496647PARODI              PEDRO               19880918E2700000000000020150628                     
40743447FILIPA              RAMIRO              19891007P2700000000000020150628                     
40790247MORELLI             RAUL                19870214Y2700000000000020150628                     
40797047FERNANDEZ           RICARDO             19840419L2700000000000020150628                     
41772357FASIELLA            ROBERTO             19820621F2700000000000020150628                     
41869888SOLORZANO           RUBEN               19800927M2700000000000020150628                     
41879641PAREDES             RUTH                19790714N2700000000000020150628                     
42015432FERRARIS            SABRINA             19770911Q2700000000000020150628                     
42151222TARQUINO            SERGIO              19760714B2700000000000020150628                     
42187012ABRATE              SOFIA               19750904K2700000000000020150628                     
42192802CRIVELLI            SOLEDAD             19741006H2700000000000020150628                     
42439602BINETTI             SUSANA              19731108U2700000000000020150628                     
42486402AZAR                TERESA              19721210X2700000000000020150628                     
42493202BONELLI             WALTER              19710912L8700000000000020150628                     
43468512APARICIO            FACUNDO             19700817F8700000000000020150628                     
43566043LANATA              ANTONIO             19690719V8700000000000020150628                     
43575796QUIROGA             EZEQUIEL            19680623T8700000000000020150628                     
43711587ATREIDES            FEDERICO            19670528E8700000000000020150628                     
43847377PEREA               ADRIANA             19810101B1700000000000000000000                     
43883167ROTEDA              AGUSTIN             19820204K1700000000000000000000                     
43888957MICHELIZ            ALICIA              19830307H1700000000000000000000                     
44135757SOSA                ANAHI               19840410U9700000000000000000000                     
44182557BENITEZ             ANALIA              19850513X2700000000000000000000                     
44189357GONZALEZ            ANDREA              19860616W2700000000000000000000                     
45164667LOPEZ               ANDRES              19870719E2700000000000000000000                     
45262198SUAREZ              ANIBAL              19880822P2700000000000000000000                     
45271951RAMIRES             CARLOS              19890925Y2700000000000000000000                     
45407742ACHAVAL             CELIA               19901028L3700000000000000000000                     
45543532SOBRERO             CRISTINA            19911131F3700000000000000000000                     
45579322QUIMAL              DANIEL              19921201M3700000000000000000000                     
45585112SANCHEZ             DIEGO               19920102N3700000000000000000000                     
45831912CERDA               EDUARDO             19930205Q6700000000000000000000                     
45878712CONTRERAS           EMILIA              19940308R2700000000000000000000                     
45885512LUQUE               ENRIQUE             19950411A2700000000000000000000                     
46860822IBAÑEZ              FRANCISCO           19960514J2700000000000000000000                     
46958353DIAZ                GABRIELA            19970617D7700000000000000000000                     
46968106BAGLIETTO           GASTON              19980720Z7700000000000020150315                     
47103897ALVAREZ             GONZALO             19990823S3700000000000020150315                     
47239687VICENZO             GRACIELA            20000926G3700000000000020150315                     
47275477SOLERA              GUSTAVO             20011029V8700000000000020150315                     
47281267SOLIS               IGNACIO             19670101T8700000000000020150628                     
47528067BIGLIA              JEREMIAS            19680204B9700000000000020150628                     
47574867MORENO              JORGE               19690307K2700000000000020150628                     
47581667CACERES             JOSEFINA            19700410H2700000000000020150628                     
48556977PELAEZ              JUAN                19710513U2700000000000020150628                     
48654508BARONI              LISANDRO            19720616X6700000000000020150628                     
48664261BERMUDEZ            LUCIA               19730719W6700000000000020150315                     
48800052SALDES              LUCIANA             19740822E6700000000000020150315                     
48935842RENAN               MARCELO             19750925P6700000000000020150315                     
48971632RACEDO              MARIA               19761028Y9700000000000020150315                     
48977422ROLDAN              MARIELA             19771131L9700000000000020150628                     
49224222IRIARTE             MARINA              19770101F9700000000000020150628                     
49271022CUELLO              MARIO               19780204M2700000000000020150628                     
49277822MELIAN              MARISA              19790307N7700000000000020150628                     
50253132PALERMO             MARTHA              19800410Q7700000000000020150628                     
50350663VAUDAGNA            MARTIN              19810513R7700000000000020150628                     
50360416MONTENEGRO          MARTINA             19820616A7700000000000020150315                     
50496207SALERNO             MATIAS              19830719J7700000000000020150315                     
50631997FRANCO              MATILDE             19840822D7700000000000020150315                     
50667787ARCE                MERCEDES            19850925Z7700000000000020150315                     
50673577PARRILLI            MICAELA             19861028S7700000000000020150628                     
50920377MENDEZ              MIGUEL              19871131G8700000000000020150628                     
50967177MAIQUEZ             NADIR               19881201V2700000000000020150628                     
50973977ROVERI              NAHUEL              19890102T2700000000000020150628                     
51949287ALFARO              OMAR                19900205B2700000000000020150628                     
52046818LAVERNI             OTTO                19910308K2700000000000020150628                     
52056571LIGORRIA            PABLO               19920411H2700000000000020150628                     
52192362LIFCHITZ            PAOLA               19930514U2700000000000020150628                     
52328152LOZANO              PAULA               19840514X2700000000000020150628                     
52363942PARENTE             PAULA               19870714W2700000000000020150628                     
52369732PARODI              PEDRO               19880918E2700000000000020150628                     
52616532FILIPA              RAMIRO              19891007P2700000000000020150628                     
52663332MORELLI             RAUL                19870214Y2700000000000020150628                     
52670132FERNANDEZ           RICARDO             19840419L2700000000000020150628                     
53645442FASIELLA            ROBERTO             19820621F2700000000000020150628                     
53742973SOLORZANO           RUBEN               19800927M2700000000000020150628                     
53752726PAREDES             RUTH                19790714N2700000000000020150628                     
53888517FERRARIS            SABRINA             19770911Q2700000000000020150628                     
54024307TARQUINO            SERGIO              19760714B2700000000000020150628                     
54060097ABRATE              SOFIA               19750904K2700000000000020150628                     
54065887CRIVELLI            SOLEDAD             19741006H2700000000000020150628                     
54312687BINETTI             SUSANA              19731108U2700000000000020150628                     
54359487AZAR                TERESA              19721210X2700000000000020150628                     
54366287BONELLI             WALTER              19710912L8700000000000020150628                     
55341597APARICIO            FACUNDO             19700817F8700000000000020150628                     
55439128LANATA              ANTONIO             19690719V8700000000000020150628                     
55448881QUIROGA             EZEQUIEL            19680623T8700000000000020150628                     
55584672ATREIDES            FEDERICO            19670528E8700000000000020150628                     
55720462PEREA               ADRIANA             19810101B1700000000000000000000                     
55756252ROTEDA              AGUSTIN             19820204K1700000000000000000000                     
55762042MICHELIZ            ALICIA              19830307H1700000000000000000000                     
56008842SOSA                ANAHI               19840410U9700000000000000000000                     
56055642BENITEZ             ANALIA              19850513X2700000000000000000000                     
56062442GONZALEZ            ANDREA              19860616W2700000000000000000000                     
57037752LOPEZ               ANDRES              19870719E2700000000000000000000                     
57135283SUAREZ              ANIBAL              19880822P2700000000000000000000                     
57145036RAMIRES             CARLOS              19890925Y2700000000000000000000                     
57280827ACHAVAL             CELIA               19901028L3700000000000000000000                     
57416617SOBRERO             CRISTINA            19911131F3700000000000000000000                     
57452407QUIMAL              DANIEL              19921201M3700000000000000000000                     
57458197SANCHEZ             DIEGO               19920102N3700000000000000000000                     
57704997CERDA               EDUARDO             19930205Q6700000000000000000000                     
57751797CONTRERAS           EMILIA              19940308R2700000000000000000000                     
57758597LUQUE               ENRIQUE             19950411A2700000000000000000000                     
58733907IBAÑEZ              FRANCISCO           19960514J2700000000000000000000                     
58831438DIAZ                GABRIELA            19970617D7700000000000000000000                     
58841191BAGLIETTO           GASTON              19980720Z7700000000000020150315                     
58976982ALVAREZ             GONZALO             19990823S3700000000000020150315                     
59112772VICENZO             GRACIELA            20000926G3700000000000020150315                     
59148562SOLERA              GUSTAVO             20011029V8700000000000020150315                     
59154352SOLIS               IGNACIO             19670101T8700000000000020150628                     
59401152BIGLIA              JEREMIAS            19680204B9700000000000020150628                     
59447952MORENO              JORGE               19690307K2700000000000020150628                     
59454752CACERES             JOSEFINA            19700410H2700000000000020150628                     
60430062PELAEZ              JUAN                19710513U2700000000000020150628                     
60527593BARONI              LISANDRO            19720616X6700000000000020150628                     
60537346BERMUDEZ            LUCIA               19730719W6700000000000020150315                     
60673137SALDES              LUCIANA             19740822E6700000000000020150315                     
60808927RENAN               MARCELO             19750925P6700000000000020150315                     
60844717RACEDO              MARIA               19761028Y9700000000000020150315                     
60850507ROLDAN              MARIELA             19771131L9700000000000020150628                     
61097307IRIARTE             MARINA              19770101F9700000000000020150628                     
61144107CUELLO              MARIO               19780204M2700000000000020150628                     
61150907MELIAN              MARISA              19790307N7700000000000020150628                     
62126217PALERMO             MARTHA              19800410Q7700000000000020150628                     
62223748VAUDAGNA            MARTIN              19810513R7700000000000020150628                     
62233501MONTENEGRO          MARTINA             19820616A7700000000000020150315                     
62369292SALERNO             MATIAS              19830719J7700000000000020150315                     
62505082FRANCO              MATILDE             19840822D7700000000000020150315                     
62540872ARCE                MERCEDES            19850925Z7700000000000020150315                     
62546662PARRILLI            MICAELA             19861028S7700000000000020150628                     
62793462MENDEZ              MIGUEL              19871131G8700000000000020150628                     
62840262MAIQUEZ             NADIR               19881201V2700000000000020150628                     
62847062ROVERI              NAHUEL              19890102T2700000000000020150628                     
63822372ALFARO              OMAR                19900205B2700000000000020150628                     
63919903LAVERNI             OTTO                19910308K2700000000000020150628                     
63929656LIGORRIA            PABLO               19920411H2700000000000020150628                     
64065447LIFCHITZ            PAOLA               19930514U2700000000000020150628                     
64201237LOZANO              PAULA               19840514X2700000000000020150628                     
64237027PARENTE             PAULA               19870714W2700000000000020150628                     
64242817PARODI              PEDRO               19880918E2700000000000020150628                     
64489617FILIPA              RAMIRO              19891007P2700000000000020150628                     
64536417MORELLI             RAUL                19870214Y2700000000000020150628                     
64543217FERNANDEZ           RICARDO             19840419L2700000000000020150628                     
65518527FASIELLA            ROBERTO             19820621F2700000000000020150628                     
65616058SOLORZANO           RUBEN               19800927M2700000000000020150628                     
65625811PAREDES             RUTH                19790714N2700000000000020150628                     
65761602FERRARIS            SABRINA             19770911Q2700000000000020150628                     
65897392TARQUINO            SERGIO              19760714B2700000000000020150628                     
65933182ABRATE              SOFIA               19750904K2700000000000020150628                     
65938972CRIVELLI            SOLEDAD             19741006H2700000000000020150628                     
66185772BINETTI             SUSANA              19731108U2700000000000020150628                     
66232572AZAR                TERESA              19721210X2700000000000020150628                     
66239372BONELLI             WALTER              19710912L8700000000000020150628                     
67214682APARICIO            FACUNDO             19700817F8700000000000020150628                     
67312213LANATA              ANTONIO             19690719V8700000000000020150628                     
67321966QUIROGA             EZEQUIEL            19680623T8700000000000020150628                     
67457757ATREIDES            FEDERICO            19670528E8700000000000020150628                     
67593547PEREA               ADRIANA             19810101B1700000000000000000000                     
67629337ROTEDA              AGUSTIN             19820204K1700000000000000000000                     
67635127MICHELIZ            ALICIA              19830307H1700000000000000000000                     
67881927SOSA                ANAHI               19840410U9700000000000000000000                     
67928727BENITEZ             ANALIA              19850513X2700000000000000000000                     
67935527GONZALEZ            ANDREA              19860616W2700000000000000000000                     
68910837LOPEZ               ANDRES              19870719E2700000000000000000000                     
69008368SUAREZ              ANIBAL              19880822P2700000000000000000000                     
69018121RAMIRES             CARLOS              19890925Y2700000000000000000000                     
69153912ACHAVAL             CELIA               19901028L3700000000000000000000                     
